{
  "_format": "hh-sol-artifact-1",
  "contractName": "NFTCollection",
  "sourceName": "contracts/NFTCollection.sol",
  "abi": [
    {
      "anonymous": false,
      "inputs": [
        {
          "indexed": true,
          "internalType": "address",
          "name": "owner",
          "type": "address"
        },
        {
          "indexed": false,
          "internalType": "string",
          "name": "name",
          "type": "string"
        },
        {
          "indexed": false,
          "internalType": "string",
          "name": "category",
          "type": "string"
        }
      ],
      "name": "CollectionCreated",
      "type": "event"
    },
    {
      "anonymous": false,
      "inputs": [
        {
          "indexed": true,
          "internalType": "address",
          "name": "owner",
          "type": "address"
        },
        {
          "indexed": false,
          "internalType": "uint256",
          "name": "index",
          "type": "uint256"
        }
      ],
      "name": "CollectionDeleted",
      "type": "event"
    },
    {
      "anonymous": false,
      "inputs": [
        {
          "indexed": true,
          "internalType": "address",
          "name": "owner",
          "type": "address"
        },
        {
          "indexed": false,
          "internalType": "uint256",
          "name": "index",
          "type": "uint256"
        },
        {
          "indexed": false,
          "internalType": "string",
          "name": "name",
          "type": "string"
        },
        {
          "indexed": false,
          "internalType": "string",
          "name": "category",
          "type": "string"
        }
      ],
      "name": "CollectionUpdated",
      "type": "event"
    },
    {
      "inputs": [
        {
          "internalType": "string",
          "name": "_name",
          "type": "string"
        },
        {
          "internalType": "string",
          "name": "_picture",
          "type": "string"
        },
        {
          "internalType": "string",
          "name": "_banner",
          "type": "string"
        },
        {
          "internalType": "string",
          "name": "_category",
          "type": "string"
        }
      ],
      "name": "createCollection",
      "outputs": [],
      "stateMutability": "nonpayable",
      "type": "function"
    },
    {
      "inputs": [
        {
          "internalType": "uint256",
          "name": "index",
          "type": "uint256"
        }
      ],
      "name": "deleteCollection",
      "outputs": [],
      "stateMutability": "nonpayable",
      "type": "function"
    },
    {
      "inputs": [
        {
          "internalType": "uint256",
          "name": "index",
          "type": "uint256"
        },
        {
          "internalType": "string",
          "name": "_name",
          "type": "string"
        },
        {
          "internalType": "string",
          "name": "_picture",
          "type": "string"
        },
        {
          "internalType": "string",
          "name": "_banner",
          "type": "string"
        },
        {
          "internalType": "string",
          "name": "_category",
          "type": "string"
        }
      ],
      "name": "editCollection",
      "outputs": [],
      "stateMutability": "nonpayable",
      "type": "function"
    },
    {
      "inputs": [],
      "name": "getAllCollections",
      "outputs": [
        {
          "components": [
            {
              "internalType": "string",
              "name": "name",
              "type": "string"
            },
            {
              "internalType": "string",
              "name": "picture",
              "type": "string"
            },
            {
              "internalType": "string",
              "name": "banner",
              "type": "string"
            },
            {
              "internalType": "string",
              "name": "category",
              "type": "string"
            }
          ],
          "internalType": "struct NFTCollection.Collection[]",
          "name": "",
          "type": "tuple[]"
        }
      ],
      "stateMutability": "view",
      "type": "function"
    },
    {
      "inputs": [],
      "name": "getUserCollections",
      "outputs": [
        {
          "components": [
            {
              "internalType": "string",
              "name": "name",
              "type": "string"
            },
            {
              "internalType": "string",
              "name": "picture",
              "type": "string"
            },
            {
              "internalType": "string",
              "name": "banner",
              "type": "string"
            },
            {
              "internalType": "string",
              "name": "category",
              "type": "string"
            }
          ],
          "internalType": "struct NFTCollection.Collection[]",
          "name": "",
          "type": "tuple[]"
        }
      ],
      "stateMutability": "view",
      "type": "function"
    }
  ],
  "bytecode": "0x608060405234801561001057600080fd5b50611b76806100206000396000f3fe608060405234801561001057600080fd5b50600436106100575760003560e01c8063107defd31461005c5780636804a95814610078578063a42c587a14610096578063a49dac54146100b2578063fa159278146100d0575b600080fd5b6100766004803603810190610071919061117d565b6100ec565b005b61008061045b565b60405161008d9190611421565b60405180910390f35b6100b060048036038101906100ab9190611443565b610702565b005b6100ba610ae9565b6040516100c79190611421565b60405180910390f35b6100ea60048036038101906100e59190611470565b610dcc565b005b6000803373ffffffffffffffffffffffffffffffffffffffff1673ffffffffffffffffffffffffffffffffffffffff16815260200190815260200160002080549050851061016f576040517f08c379a0000000000000000000000000000000000000000000000000000000008152600401610166906115a4565b60405180910390fd5b836000803373ffffffffffffffffffffffffffffffffffffffff1673ffffffffffffffffffffffffffffffffffffffff16815260200190815260200160002086815481106101c0576101bf6115c4565b5b906000526020600020906004020160000190816101dd91906117ff565b50826000803373ffffffffffffffffffffffffffffffffffffffff1673ffffffffffffffffffffffffffffffffffffffff168152602001908152602001600020868154811061022f5761022e6115c4565b5b9060005260206000209060040201600101908161024c91906117ff565b50816000803373ffffffffffffffffffffffffffffffffffffffff1673ffffffffffffffffffffffffffffffffffffffff168152602001908152602001600020868154811061029e5761029d6115c4565b5b906000526020600020906004020160020190816102bb91906117ff565b50806000803373ffffffffffffffffffffffffffffffffffffffff1673ffffffffffffffffffffffffffffffffffffffff168152602001908152602001600020868154811061030d5761030c6115c4565b5b9060005260206000209060040201600301908161032a91906117ff565b506000803373ffffffffffffffffffffffffffffffffffffffff1673ffffffffffffffffffffffffffffffffffffffff168152602001908152602001600020858154811061037b5761037a6115c4565b5b90600052602060002090600402016001868154811061039d5761039c6115c4565b5b9060005260206000209060040201600082018160000190816103bf91906118e7565b50600182018160010190816103d491906118e7565b50600282018160020190816103e991906118e7565b50600382018160030190816103fe91906118e7565b509050503373ffffffffffffffffffffffffffffffffffffffff167f7f269325a29a76c7c94a0578d39f46c57eb0af0c0e4c3ede6e2cd0ac022bce2886868460405161044c93929190611a17565b60405180910390a25050505050565b60606001805480602002602001604051908101604052809291908181526020016000905b828210156106f957838290600052602060002090600402016040518060800160405290816000820180546104b290611622565b80601f01602080910402602001604051908101604052809291908181526020018280546104de90611622565b801561052b5780601f106105005761010080835404028352916020019161052b565b820191906000526020600020905b81548152906001019060200180831161050e57829003601f168201915b5050505050815260200160018201805461054490611622565b80601f016020809104026020016040519081016040528092919081815260200182805461057090611622565b80156105bd5780601f10610592576101008083540402835291602001916105bd565b820191906000526020600020905b8154815290600101906020018083116105a057829003601f168201915b505050505081526020016002820180546105d690611622565b80601f016020809104026020016040519081016040528092919081815260200182805461060290611622565b801561064f5780601f106106245761010080835404028352916020019161064f565b820191906000526020600020905b81548152906001019060200180831161063257829003601f168201915b5050505050815260200160038201805461066890611622565b80601f016020809104026020016040519081016040528092919081815260200182805461069490611622565b80156106e15780601f106106b6576101008083540402835291602001916106e1565b820191906000526020600020905b8154815290600101906020018083116106c457829003601f168201915b5050505050815250508152602001906001019061047f565b50505050905090565b6000803373ffffffffffffffffffffffffffffffffffffffff1673ffffffffffffffffffffffffffffffffffffffff168152602001908152602001600020805490508110610785576040517f08c379a000000000000000000000000000000000000000000000000000000000815260040161077c906115a4565b60405180910390fd5b3373ffffffffffffffffffffffffffffffffffffffff167febf865403d897ddd50792b4ef542206529473e4ca1ec5075fa053505c06821a5826040516107cb9190611a5c565b60405180910390a2600060016000803373ffffffffffffffffffffffffffffffffffffffff1673ffffffffffffffffffffffffffffffffffffffff168152602001908152602001600020805490506108239190611aa6565b90506000803373ffffffffffffffffffffffffffffffffffffffff1673ffffffffffffffffffffffffffffffffffffffff1681526020019081526020016000208181548110610875576108746115c4565b5b90600052602060002090600402016000803373ffffffffffffffffffffffffffffffffffffffff1673ffffffffffffffffffffffffffffffffffffffff16815260200190815260200160002083815481106108d3576108d26115c4565b5b9060005260206000209060040201600082018160000190816108f591906118e7565b506001820181600101908161090a91906118e7565b506002820181600201908161091f91906118e7565b506003820181600301908161093491906118e7565b509050506000803373ffffffffffffffffffffffffffffffffffffffff1673ffffffffffffffffffffffffffffffffffffffff16815260200190815260200160002080548061098657610985611ada565b5b6001900381819060005260206000209060040201600080820160006109ab9190610f90565b6001820160006109bb9190610f90565b6002820160006109cb9190610f90565b6003820160006109db9190610f90565b50509055600181815481106109f3576109f26115c4565b5b906000526020600020906004020160018381548110610a1557610a146115c4565b5b906000526020600020906004020160008201816000019081610a3791906118e7565b5060018201816001019081610a4c91906118e7565b5060028201816002019081610a6191906118e7565b5060038201816003019081610a7691906118e7565b509050506001805480610a8c57610a8b611ada565b5b600190038181906000526020600020906004020160008082016000610ab19190610f90565b600182016000610ac19190610f90565b600282016000610ad19190610f90565b600382016000610ae19190610f90565b505090555050565b60606000803373ffffffffffffffffffffffffffffffffffffffff1673ffffffffffffffffffffffffffffffffffffffff168152602001908152602001600020805480602002602001604051908101604052809291908181526020016000905b82821015610dc35783829060005260206000209060040201604051806080016040529081600082018054610b7c90611622565b80601f0160208091040260200160405190810160405280929190818152602001828054610ba890611622565b8015610bf55780601f10610bca57610100808354040283529160200191610bf5565b820191906000526020600020905b815481529060010190602001808311610bd857829003601f168201915b50505050508152602001600182018054610c0e90611622565b80601f0160208091040260200160405190810160405280929190818152602001828054610c3a90611622565b8015610c875780601f10610c5c57610100808354040283529160200191610c87565b820191906000526020600020905b815481529060010190602001808311610c6a57829003601f168201915b50505050508152602001600282018054610ca090611622565b80601f0160208091040260200160405190810160405280929190818152602001828054610ccc90611622565b8015610d195780601f10610cee57610100808354040283529160200191610d19565b820191906000526020600020905b815481529060010190602001808311610cfc57829003601f168201915b50505050508152602001600382018054610d3290611622565b80601f0160208091040260200160405190810160405280929190818152602001828054610d5e90611622565b8015610dab5780601f10610d8057610100808354040283529160200191610dab565b820191906000526020600020905b815481529060010190602001808311610d8e57829003601f168201915b50505050508152505081526020019060010190610b49565b50505050905090565b600060405180608001604052808681526020018581526020018481526020018381525090506000803373ffffffffffffffffffffffffffffffffffffffff1673ffffffffffffffffffffffffffffffffffffffff1681526020019081526020016000208190806001815401808255809150506001900390600052602060002090600402016000909190919091506000820151816000019081610e6e91906117ff565b506020820151816001019081610e8491906117ff565b506040820151816002019081610e9a91906117ff565b506060820151816003019081610eb091906117ff565b50505060018190806001815401808255809150506001900390600052602060002090600402016000909190919091506000820151816000019081610ef491906117ff565b506020820151816001019081610f0a91906117ff565b506040820151816002019081610f2091906117ff565b506060820151816003019081610f3691906117ff565b5050503373ffffffffffffffffffffffffffffffffffffffff167f3454b57f2dca4f5a54e8358d096ac9d1a0d2dab98991ddb89ff9ea17462606178684604051610f81929190611b09565b60405180910390a25050505050565b508054610f9c90611622565b6000825580601f10610fae5750610fcd565b601f016020900490600052602060002090810190610fcc9190610fd0565b5b50565b5b80821115610fe9576000816000905550600101610fd1565b5090565b6000604051905090565b600080fd5b600080fd5b6000819050919050565b61101481611001565b811461101f57600080fd5b50565b6000813590506110318161100b565b92915050565b600080fd5b600080fd5b6000601f19601f8301169050919050565b7f4e487b7100000000000000000000000000000000000000000000000000000000600052604160045260246000fd5b61108a82611041565b810181811067ffffffffffffffff821117156110a9576110a8611052565b5b80604052505050565b60006110bc610fed565b90506110c88282611081565b919050565b600067ffffffffffffffff8211156110e8576110e7611052565b5b6110f182611041565b9050602081019050919050565b82818337600083830152505050565b600061112061111b846110cd565b6110b2565b90508281526020810184848401111561113c5761113b61103c565b5b6111478482856110fe565b509392505050565b600082601f83011261116457611163611037565b5b813561117484826020860161110d565b91505092915050565b600080600080600060a0868803121561119957611198610ff7565b5b60006111a788828901611022565b955050602086013567ffffffffffffffff8111156111c8576111c7610ffc565b5b6111d48882890161114f565b945050604086013567ffffffffffffffff8111156111f5576111f4610ffc565b5b6112018882890161114f565b935050606086013567ffffffffffffffff81111561122257611221610ffc565b5b61122e8882890161114f565b925050608086013567ffffffffffffffff81111561124f5761124e610ffc565b5b61125b8882890161114f565b9150509295509295909350565b600081519050919050565b600082825260208201905092915050565b6000819050602082019050919050565b600081519050919050565b600082825260208201905092915050565b60005b838110156112ce5780820151818401526020810190506112b3565b60008484015250505050565b60006112e582611294565b6112ef818561129f565b93506112ff8185602086016112b0565b61130881611041565b840191505092915050565b6000608083016000830151848203600086015261133082826112da565b9150506020830151848203602086015261134a82826112da565b9150506040830151848203604086015261136482826112da565b9150506060830151848203606086015261137e82826112da565b9150508091505092915050565b60006113978383611313565b905092915050565b6000602082019050919050565b60006113b782611268565b6113c18185611273565b9350836020820285016113d385611284565b8060005b8581101561140f57848403895281516113f0858261138b565b94506113fb8361139f565b925060208a019950506001810190506113d7565b50829750879550505050505092915050565b6000602082019050818103600083015261143b81846113ac565b905092915050565b60006020828403121561145957611458610ff7565b5b600061146784828501611022565b91505092915050565b6000806000806080858703121561148a57611489610ff7565b5b600085013567ffffffffffffffff8111156114a8576114a7610ffc565b5b6114b48782880161114f565b945050602085013567ffffffffffffffff8111156114d5576114d4610ffc565b5b6114e18782880161114f565b935050604085013567ffffffffffffffff81111561150257611501610ffc565b5b61150e8782880161114f565b925050606085013567ffffffffffffffff81111561152f5761152e610ffc565b5b61153b8782880161114f565b91505092959194509250565b600082825260208201905092915050565b7f496e76616c696420636f6c6c656374696f6e20696e6465780000000000000000600082015250565b600061158e601883611547565b915061159982611558565b602082019050919050565b600060208201905081810360008301526115bd81611581565b9050919050565b7f4e487b7100000000000000000000000000000000000000000000000000000000600052603260045260246000fd5b7f4e487b7100000000000000000000000000000000000000000000000000000000600052602260045260246000fd5b6000600282049050600182168061163a57607f821691505b60208210810361164d5761164c6115f3565b5b50919050565b60008190508160005260206000209050919050565b60006020601f8301049050919050565b600082821b905092915050565b6000600883026116b57fffffffffffffffffffffffffffffffffffffffffffffffffffffffffffffffff82611678565b6116bf8683611678565b95508019841693508086168417925050509392505050565b6000819050919050565b60006116fc6116f76116f284611001565b6116d7565b611001565b9050919050565b6000819050919050565b611716836116e1565b61172a61172282611703565b848454611685565b825550505050565b600090565b61173f611732565b61174a81848461170d565b505050565b5b8181101561176e57611763600082611737565b600181019050611750565b5050565b601f8211156117b35761178481611653565b61178d84611668565b8101602085101561179c578190505b6117b06117a885611668565b83018261174f565b50505b505050565b600082821c905092915050565b60006117d6600019846008026117b8565b1980831691505092915050565b60006117ef83836117c5565b9150826002028217905092915050565b61180882611294565b67ffffffffffffffff81111561182157611820611052565b5b61182b8254611622565b611836828285611772565b600060209050601f8311600181146118695760008415611857578287015190505b61186185826117e3565b8655506118c9565b601f19841661187786611653565b60005b8281101561189f5784890151825560018201915060208501945060208101905061187a565b868310156118bc57848901516118b8601f8916826117c5565b8355505b6001600288020188555050505b505050505050565b6000815490506118e081611622565b9050919050565b8181036118f55750506119cd565b6118fe826118d1565b67ffffffffffffffff81111561191757611916611052565b5b6119218254611622565b61192c828285611772565b6000601f83116001811461195b5760008415611949578287015490505b61195385826117e3565b8655506119c6565b601f19841661196987611653565b965061197486611653565b60005b8281101561199c57848901548255600182019150600185019450602081019050611977565b868310156119b957848901546119b5601f8916826117c5565b8355505b6001600288020188555050505b5050505050505b565b6119d881611001565b82525050565b60006119e982611294565b6119f38185611547565b9350611a038185602086016112b0565b611a0c81611041565b840191505092915050565b6000606082019050611a2c60008301866119cf565b8181036020830152611a3e81856119de565b90508181036040830152611a5281846119de565b9050949350505050565b6000602082019050611a7160008301846119cf565b92915050565b7f4e487b7100000000000000000000000000000000000000000000000000000000600052601160045260246000fd5b6000611ab182611001565b9150611abc83611001565b9250828203905081811115611ad457611ad3611a77565b5b92915050565b7f4e487b7100000000000000000000000000000000000000000000000000000000600052603160045260246000fd5b60006040820190508181036000830152611b2381856119de565b90508181036020830152611b3781846119de565b9050939250505056fea2646970667358221220f8a6d02126a429e4fdc455f92591187e7b0dd69eedf5b544bba1cea0e6dbd1d964736f6c63430008110033",
  "linkReferences": {},
  "deployedLinkReferences": {}
}