{
  "_format": "hh-sol-artifact-1",
  "contractName": "NFTMarketplace",
  "sourceName": "contracts/NFTMarketplace.sol",
  "abi": [
    {
      "inputs": [],
      "stateMutability": "nonpayable",
      "type": "constructor"
    },
    {
      "anonymous": false,
      "inputs": [
        {
          "indexed": true,
          "internalType": "address",
          "name": "owner",
          "type": "address"
        },
        {
          "indexed": true,
          "internalType": "address",
          "name": "approved",
          "type": "address"
        },
        {
          "indexed": true,
          "internalType": "uint256",
          "name": "tokenId",
          "type": "uint256"
        }
      ],
      "name": "Approval",
      "type": "event"
    },
    {
      "anonymous": false,
      "inputs": [
        {
          "indexed": true,
          "internalType": "address",
          "name": "owner",
          "type": "address"
        },
        {
          "indexed": true,
          "internalType": "address",
          "name": "operator",
          "type": "address"
        },
        {
          "indexed": false,
          "internalType": "bool",
          "name": "approved",
          "type": "bool"
        }
      ],
      "name": "ApprovalForAll",
      "type": "event"
    },
    {
      "anonymous": false,
      "inputs": [
        {
          "indexed": true,
          "internalType": "uint256",
          "name": "tokenId",
          "type": "uint256"
        },
        {
          "indexed": false,
          "internalType": "address",
          "name": "seller",
          "type": "address"
        },
        {
          "indexed": false,
          "internalType": "address",
          "name": "owner",
          "type": "address"
        },
        {
          "indexed": false,
          "internalType": "uint256",
          "name": "price",
          "type": "uint256"
        },
        {
          "indexed": false,
          "internalType": "bool",
          "name": "sold",
          "type": "bool"
        }
      ],
      "name": "MarketItemCreated",
      "type": "event"
    },
    {
      "anonymous": false,
      "inputs": [
        {
          "indexed": true,
          "internalType": "address",
          "name": "ethereumAddress",
          "type": "address"
        }
      ],
      "name": "ProfileCreated",
      "type": "event"
    },
    {
      "anonymous": false,
      "inputs": [
        {
          "indexed": true,
          "internalType": "address",
          "name": "from",
          "type": "address"
        },
        {
          "indexed": true,
          "internalType": "address",
          "name": "to",
          "type": "address"
        },
        {
          "indexed": true,
          "internalType": "uint256",
          "name": "tokenId",
          "type": "uint256"
        }
      ],
      "name": "Transfer",
      "type": "event"
    },
    {
      "inputs": [
        {
          "internalType": "address",
          "name": "to",
          "type": "address"
        },
        {
          "internalType": "uint256",
          "name": "tokenId",
          "type": "uint256"
        }
      ],
      "name": "approve",
      "outputs": [],
      "stateMutability": "nonpayable",
      "type": "function"
    },
    {
      "inputs": [
        {
          "internalType": "address",
          "name": "owner",
          "type": "address"
        }
      ],
      "name": "balanceOf",
      "outputs": [
        {
          "internalType": "uint256",
          "name": "",
          "type": "uint256"
        }
      ],
      "stateMutability": "view",
      "type": "function"
    },
    {
      "inputs": [
        {
          "internalType": "uint256",
          "name": "tokenId",
          "type": "uint256"
        }
      ],
      "name": "createMarketSale",
      "outputs": [],
      "stateMutability": "payable",
      "type": "function"
    },
    {
      "inputs": [
        {
          "internalType": "string",
          "name": "url",
          "type": "string"
        },
        {
          "internalType": "uint256",
          "name": "price",
          "type": "uint256"
        }
      ],
      "name": "createToken",
      "outputs": [
        {
          "internalType": "uint256",
          "name": "",
          "type": "uint256"
        }
      ],
      "stateMutability": "payable",
      "type": "function"
    },
    {
      "inputs": [],
      "name": "fetchItemsListed",
      "outputs": [
        {
          "components": [
            {
              "internalType": "uint256",
              "name": "tokenId",
              "type": "uint256"
            },
            {
              "internalType": "address payable",
              "name": "seller",
              "type": "address"
            },
            {
              "internalType": "address payable",
              "name": "owner",
              "type": "address"
            },
            {
              "internalType": "uint256",
              "name": "price",
              "type": "uint256"
            },
            {
              "internalType": "bool",
              "name": "sold",
              "type": "bool"
            }
          ],
          "internalType": "struct NFTMarketplace.MarketItem[]",
          "name": "",
          "type": "tuple[]"
        }
      ],
      "stateMutability": "view",
      "type": "function"
    },
    {
      "inputs": [],
      "name": "fetchMarketItems",
      "outputs": [
        {
          "components": [
            {
              "internalType": "uint256",
              "name": "tokenId",
              "type": "uint256"
            },
            {
              "internalType": "address payable",
              "name": "seller",
              "type": "address"
            },
            {
              "internalType": "address payable",
              "name": "owner",
              "type": "address"
            },
            {
              "internalType": "uint256",
              "name": "price",
              "type": "uint256"
            },
            {
              "internalType": "bool",
              "name": "sold",
              "type": "bool"
            }
          ],
          "internalType": "struct NFTMarketplace.MarketItem[]",
          "name": "",
          "type": "tuple[]"
        }
      ],
      "stateMutability": "view",
      "type": "function"
    },
    {
      "inputs": [],
      "name": "fetchMyNFTs",
      "outputs": [
        {
          "components": [
            {
              "internalType": "uint256",
              "name": "tokenId",
              "type": "uint256"
            },
            {
              "internalType": "address payable",
              "name": "seller",
              "type": "address"
            },
            {
              "internalType": "address payable",
              "name": "owner",
              "type": "address"
            },
            {
              "internalType": "uint256",
              "name": "price",
              "type": "uint256"
            },
            {
              "internalType": "bool",
              "name": "sold",
              "type": "bool"
            }
          ],
          "internalType": "struct NFTMarketplace.MarketItem[]",
          "name": "",
          "type": "tuple[]"
        }
      ],
      "stateMutability": "view",
      "type": "function"
    },
    {
      "inputs": [
        {
          "internalType": "uint256",
          "name": "tokenId",
          "type": "uint256"
        }
      ],
      "name": "getApproved",
      "outputs": [
        {
          "internalType": "address",
          "name": "",
          "type": "address"
        }
      ],
      "stateMutability": "view",
      "type": "function"
    },
    {
      "inputs": [],
      "name": "getListingPrice",
      "outputs": [
        {
          "internalType": "uint256",
          "name": "",
          "type": "uint256"
        }
      ],
      "stateMutability": "view",
      "type": "function"
    },
    {
      "inputs": [
        {
          "internalType": "uint256",
          "name": "tokenId",
          "type": "uint256"
        }
      ],
      "name": "getTokenUrl",
      "outputs": [
        {
          "internalType": "string",
          "name": "",
          "type": "string"
        }
      ],
      "stateMutability": "view",
      "type": "function"
    },
    {
      "inputs": [
        {
          "internalType": "address",
          "name": "userAddress",
          "type": "address"
        }
      ],
      "name": "getUserProfile",
      "outputs": [
        {
          "internalType": "string",
          "name": "name",
          "type": "string"
        },
        {
          "internalType": "string",
          "name": "email",
          "type": "string"
        },
        {
          "internalType": "string",
          "name": "bio",
          "type": "string"
        },
        {
          "internalType": "string",
          "name": "profileImageUri",
          "type": "string"
        },
        {
          "internalType": "string",
          "name": "profileBannerImageUri",
          "type": "string"
        },
        {
          "internalType": "address",
          "name": "connectedWallet",
          "type": "address"
        }
      ],
      "stateMutability": "view",
      "type": "function"
    },
    {
      "inputs": [
        {
          "internalType": "address",
          "name": "owner",
          "type": "address"
        },
        {
          "internalType": "address",
          "name": "operator",
          "type": "address"
        }
      ],
      "name": "isApprovedForAll",
      "outputs": [
        {
          "internalType": "bool",
          "name": "",
          "type": "bool"
        }
      ],
      "stateMutability": "view",
      "type": "function"
    },
    {
      "inputs": [],
      "name": "name",
      "outputs": [
        {
          "internalType": "string",
          "name": "",
          "type": "string"
        }
      ],
      "stateMutability": "view",
      "type": "function"
    },
    {
      "inputs": [],
      "name": "owner",
      "outputs": [
        {
          "internalType": "address payable",
          "name": "",
          "type": "address"
        }
      ],
      "stateMutability": "view",
      "type": "function"
    },
    {
      "inputs": [
        {
          "internalType": "uint256",
          "name": "tokenId",
          "type": "uint256"
        }
      ],
      "name": "ownerOf",
      "outputs": [
        {
          "internalType": "address",
          "name": "",
          "type": "address"
        }
      ],
      "stateMutability": "view",
      "type": "function"
    },
    {
      "inputs": [
        {
          "internalType": "uint256",
          "name": "tokenId",
          "type": "uint256"
        },
        {
          "internalType": "uint256",
          "name": "price",
          "type": "uint256"
        }
      ],
      "name": "resellToken",
      "outputs": [],
      "stateMutability": "payable",
      "type": "function"
    },
    {
      "inputs": [
        {
          "internalType": "address",
          "name": "from",
          "type": "address"
        },
        {
          "internalType": "address",
          "name": "to",
          "type": "address"
        },
        {
          "internalType": "uint256",
          "name": "tokenId",
          "type": "uint256"
        }
      ],
      "name": "safeTransferFrom",
      "outputs": [],
      "stateMutability": "nonpayable",
      "type": "function"
    },
    {
      "inputs": [
        {
          "internalType": "address",
          "name": "from",
          "type": "address"
        },
        {
          "internalType": "address",
          "name": "to",
          "type": "address"
        },
        {
          "internalType": "uint256",
          "name": "tokenId",
          "type": "uint256"
        },
        {
          "internalType": "bytes",
          "name": "data",
          "type": "bytes"
        }
      ],
      "name": "safeTransferFrom",
      "outputs": [],
      "stateMutability": "nonpayable",
      "type": "function"
    },
    {
      "inputs": [
        {
          "internalType": "address",
          "name": "operator",
          "type": "address"
        },
        {
          "internalType": "bool",
          "name": "approved",
          "type": "bool"
        }
      ],
      "name": "setApprovalForAll",
      "outputs": [],
      "stateMutability": "nonpayable",
      "type": "function"
    },
    {
      "inputs": [
        {
          "internalType": "string",
          "name": "name",
          "type": "string"
        },
        {
          "internalType": "string",
          "name": "email",
          "type": "string"
        },
        {
          "internalType": "string",
          "name": "bio",
          "type": "string"
        },
        {
          "internalType": "string",
          "name": "profileImageUri",
          "type": "string"
        },
        {
          "internalType": "string",
          "name": "profileBannerImageUri",
          "type": "string"
        }
      ],
      "name": "setUserProfile",
      "outputs": [],
      "stateMutability": "nonpayable",
      "type": "function"
    },
    {
      "inputs": [
        {
          "internalType": "bytes4",
          "name": "interfaceId",
          "type": "bytes4"
        }
      ],
      "name": "supportsInterface",
      "outputs": [
        {
          "internalType": "bool",
          "name": "",
          "type": "bool"
        }
      ],
      "stateMutability": "view",
      "type": "function"
    },
    {
      "inputs": [],
      "name": "symbol",
      "outputs": [
        {
          "internalType": "string",
          "name": "",
          "type": "string"
        }
      ],
      "stateMutability": "view",
      "type": "function"
    },
    {
      "inputs": [
        {
          "internalType": "uint256",
          "name": "tokenId",
          "type": "uint256"
        }
      ],
      "name": "tokenURI",
      "outputs": [
        {
          "internalType": "string",
          "name": "",
          "type": "string"
        }
      ],
      "stateMutability": "view",
      "type": "function"
    },
    {
      "inputs": [
        {
          "internalType": "address",
          "name": "from",
          "type": "address"
        },
        {
          "internalType": "address",
          "name": "to",
          "type": "address"
        },
        {
          "internalType": "uint256",
          "name": "tokenId",
          "type": "uint256"
        }
      ],
      "name": "transferFrom",
      "outputs": [],
      "stateMutability": "nonpayable",
      "type": "function"
    },
    {
      "inputs": [
        {
          "internalType": "uint256",
          "name": "_listingPrice",
          "type": "uint256"
        }
      ],
      "name": "updateListingPrice",
      "outputs": [],
      "stateMutability": "payable",
      "type": "function"
    },
    {
      "inputs": [
        {
          "internalType": "address",
          "name": "",
          "type": "address"
        }
      ],
      "name": "users",
      "outputs": [
        {
          "internalType": "string",
          "name": "name",
          "type": "string"
        },
        {
          "internalType": "string",
          "name": "email",
          "type": "string"
        },
        {
          "internalType": "string",
          "name": "bio",
          "type": "string"
        },
        {
          "internalType": "string",
          "name": "profileImageUri",
          "type": "string"
        },
        {
          "internalType": "string",
          "name": "profileBannerImageUri",
          "type": "string"
        },
        {
          "internalType": "address",
          "name": "connectedWallet",
          "type": "address"
        }
      ],
      "stateMutability": "view",
      "type": "function"
    }
  ],
  "bytecode": "0x608060405266038d7ea4c680006009553480156200001c57600080fd5b506040518060400160405280601081526020017f4d657461766572736520546f6b656e73000000000000000000000000000000008152506040518060400160405280600481526020017f4d4554540000000000000000000000000000000000000000000000000000000081525081600090816200009a919062000370565b508060019081620000ac919062000370565b50505033600b60006101000a81548173ffffffffffffffffffffffffffffffffffffffff021916908373ffffffffffffffffffffffffffffffffffffffff16021790555062000457565b600081519050919050565b7f4e487b7100000000000000000000000000000000000000000000000000000000600052604160045260246000fd5b7f4e487b7100000000000000000000000000000000000000000000000000000000600052602260045260246000fd5b600060028204905060018216806200017857607f821691505b6020821081036200018e576200018d62000130565b5b50919050565b60008190508160005260206000209050919050565b60006020601f8301049050919050565b600082821b905092915050565b600060088302620001f87fffffffffffffffffffffffffffffffffffffffffffffffffffffffffffffffff82620001b9565b620002048683620001b9565b95508019841693508086168417925050509392505050565b6000819050919050565b6000819050919050565b6000620002516200024b62000245846200021c565b62000226565b6200021c565b9050919050565b6000819050919050565b6200026d8362000230565b620002856200027c8262000258565b848454620001c6565b825550505050565b600090565b6200029c6200028d565b620002a981848462000262565b505050565b5b81811015620002d157620002c560008262000292565b600181019050620002af565b5050565b601f8211156200032057620002ea8162000194565b620002f584620001a9565b8101602085101562000305578190505b6200031d6200031485620001a9565b830182620002ae565b50505b505050565b600082821c905092915050565b6000620003456000198460080262000325565b1980831691505092915050565b600062000360838362000332565b9150826002028217905092915050565b6200037b82620000f6565b67ffffffffffffffff81111562000397576200039662000101565b5b620003a382546200015f565b620003b0828285620002d5565b600060209050601f831160018114620003e85760008415620003d3578287015190505b620003df858262000352565b8655506200044f565b601f198416620003f88662000194565b60005b828110156200042257848901518255600182019150602085019450602081019050620003fb565b868310156200044257848901516200043e601f89168262000332565b8355505b6001600288020188555050505b505050505050565b614ba480620004676000396000f3fe6080604052600436106101815760003560e01c806372b3b620116100d1578063aa9c0dcd1161008a578063be9af53611610064578063be9af536146105aa578063c87b56dd146105c6578063e219fc7514610603578063e985e9c51461061f57610181565b8063aa9c0dcd1461053c578063ae677aa314610565578063b88d4fde1461058157610181565b806372b3b620146104095780638da5cb5b1461043957806395d89b4114610464578063987ee1561461048f578063a22cb465146104d1578063a87430ba146104fa57610181565b80631d87b5d41161013e57806342842e0e1161011857806342842e0e1461033b57806345f8fa80146103645780636352211e1461038f57806370a08231146103cc57610181565b80631d87b5d4146102aa578063202e3740146102e757806323b872dd1461031257610181565b806301ffc9a71461018657806306fdde03146101c3578063081812fc146101ee578063095ea7b31461022b5780630f08efe01461025457806312e855851461027f575b600080fd5b34801561019257600080fd5b506101ad60048036038101906101a89190613345565b61065c565b6040516101ba919061338d565b60405180910390f35b3480156101cf57600080fd5b506101d861073e565b6040516101e59190613438565b60405180910390f35b3480156101fa57600080fd5b5061021560048036038101906102109190613490565b6107d0565b60405161022291906134fe565b60405180910390f35b34801561023757600080fd5b50610252600480360381019061024d9190613545565b610816565b005b34801561026057600080fd5b5061026961092d565b60405161027691906136db565b60405180910390f35b34801561028b57600080fd5b50610294610b95565b6040516102a1919061370c565b60405180910390f35b3480156102b657600080fd5b506102d160048036038101906102cc9190613490565b610b9f565b6040516102de9190613438565b60405180910390f35b3480156102f357600080fd5b506102fc610c44565b60405161030991906136db565b60405180910390f35b34801561031e57600080fd5b5061033960048036038101906103349190613727565b610f30565b005b34801561034757600080fd5b50610362600480360381019061035d9190613727565b610f90565b005b34801561037057600080fd5b50610379610fb0565b60405161038691906136db565b60405180910390f35b34801561039b57600080fd5b506103b660048036038101906103b19190613490565b61129c565b6040516103c391906134fe565b60405180910390f35b3480156103d857600080fd5b506103f360048036038101906103ee919061377a565b611322565b604051610400919061370c565b60405180910390f35b610423600480360381019061041e91906138dc565b6113d9565b604051610430919061370c565b60405180910390f35b34801561044557600080fd5b5061044e611412565b60405161045b9190613947565b60405180910390f35b34801561047057600080fd5b50610479611438565b6040516104869190613438565b60405180910390f35b34801561049b57600080fd5b506104b660048036038101906104b1919061377a565b6114ca565b6040516104c896959493929190613962565b60405180910390f35b3480156104dd57600080fd5b506104f860048036038101906104f39190613a12565b611821565b005b34801561050657600080fd5b50610521600480360381019061051c919061377a565b611837565b60405161053396959493929190613962565b60405180910390f35b34801561054857600080fd5b50610563600480360381019061055e9190613a52565b611b3b565b005b61057f600480360381019061057a9190613490565b611c23565b005b34801561058d57600080fd5b506105a860048036038101906105a39190613bfa565b611cbd565b005b6105c460048036038101906105bf9190613490565b611d1f565b005b3480156105d257600080fd5b506105ed60048036038101906105e89190613490565b611fa7565b6040516105fa9190613438565b60405180910390f35b61061d60048036038101906106189190613c7d565b61200f565b005b34801561062b57600080fd5b5061064660048036038101906106419190613cbd565b6121f9565b604051610653919061338d565b60405180910390f35b60007f80ac58cd000000000000000000000000000000000000000000000000000000007bffffffffffffffffffffffffffffffffffffffffffffffffffffffff1916827bffffffffffffffffffffffffffffffffffffffffffffffffffffffff1916148061072757507f5b5e139f000000000000000000000000000000000000000000000000000000007bffffffffffffffffffffffffffffffffffffffffffffffffffffffff1916827bffffffffffffffffffffffffffffffffffffffffffffffffffffffff1916145b8061073757506107368261228d565b5b9050919050565b60606000805461074d90613d2c565b80601f016020809104026020016040519081016040528092919081815260200182805461077990613d2c565b80156107c65780601f1061079b576101008083540402835291602001916107c6565b820191906000526020600020905b8154815290600101906020018083116107a957829003601f168201915b5050505050905090565b60006107db826122f7565b6004600083815260200190815260200160002060009054906101000a900473ffffffffffffffffffffffffffffffffffffffff169050919050565b60006108218261129c565b90508073ffffffffffffffffffffffffffffffffffffffff168373ffffffffffffffffffffffffffffffffffffffff1603610891576040517f08c379a000000000000000000000000000000000000000000000000000000000815260040161088890613dcf565b60405180910390fd5b8073ffffffffffffffffffffffffffffffffffffffff166108b0612342565b73ffffffffffffffffffffffffffffffffffffffff1614806108df57506108de816108d9612342565b6121f9565b5b61091e576040517f08c379a000000000000000000000000000000000000000000000000000000000815260040161091590613e61565b60405180910390fd5b610928838361234a565b505050565b6060600061093b6006612403565b905060006109496007612403565b6109536006612403565b61095d9190613eb0565b90506000808267ffffffffffffffff81111561097c5761097b6137b1565b5b6040519080825280602002602001820160405280156109b557816020015b6109a261327c565b81526020019060019003908161099a5790505b50905060005b84811015610b8a573073ffffffffffffffffffffffffffffffffffffffff16600a60006001846109eb9190613ee4565b815260200190815260200160002060020160009054906101000a900473ffffffffffffffffffffffffffffffffffffffff1673ffffffffffffffffffffffffffffffffffffffff1603610b77576000600182610a479190613ee4565b90506000600a60008381526020019081526020016000209050806040518060a0016040529081600082015481526020016001820160009054906101000a900473ffffffffffffffffffffffffffffffffffffffff1673ffffffffffffffffffffffffffffffffffffffff1673ffffffffffffffffffffffffffffffffffffffff1681526020016002820160009054906101000a900473ffffffffffffffffffffffffffffffffffffffff1673ffffffffffffffffffffffffffffffffffffffff1673ffffffffffffffffffffffffffffffffffffffff168152602001600382015481526020016004820160009054906101000a900460ff161515151581525050848681518110610b5a57610b59613f18565b5b6020026020010181905250600185610b729190613ee4565b945050505b8080610b8290613f47565b9150506109bb565b508094505050505090565b6000600954905090565b6060600c60008381526020019081526020016000208054610bbf90613d2c565b80601f0160208091040260200160405190810160405280929190818152602001828054610beb90613d2c565b8015610c385780601f10610c0d57610100808354040283529160200191610c38565b820191906000526020600020905b815481529060010190602001808311610c1b57829003601f168201915b50505050509050919050565b60606000610c526006612403565b905060008060005b83811015610cfa573373ffffffffffffffffffffffffffffffffffffffff16600a6000600184610c8a9190613ee4565b815260200190815260200160002060020160009054906101000a900473ffffffffffffffffffffffffffffffffffffffff1673ffffffffffffffffffffffffffffffffffffffff1603610ce757600183610ce49190613ee4565b92505b8080610cf290613f47565b915050610c5a565b5060008267ffffffffffffffff811115610d1757610d166137b1565b5b604051908082528060200260200182016040528015610d5057816020015b610d3d61327c565b815260200190600190039081610d355790505b50905060005b84811015610f25573373ffffffffffffffffffffffffffffffffffffffff16600a6000600184610d869190613ee4565b815260200190815260200160002060020160009054906101000a900473ffffffffffffffffffffffffffffffffffffffff1673ffffffffffffffffffffffffffffffffffffffff1603610f12576000600182610de29190613ee4565b90506000600a60008381526020019081526020016000209050806040518060a0016040529081600082015481526020016001820160009054906101000a900473ffffffffffffffffffffffffffffffffffffffff1673ffffffffffffffffffffffffffffffffffffffff1673ffffffffffffffffffffffffffffffffffffffff1681526020016002820160009054906101000a900473ffffffffffffffffffffffffffffffffffffffff1673ffffffffffffffffffffffffffffffffffffffff1673ffffffffffffffffffffffffffffffffffffffff168152602001600382015481526020016004820160009054906101000a900460ff161515151581525050848681518110610ef557610ef4613f18565b5b6020026020010181905250600185610f0d9190613ee4565b945050505b8080610f1d90613f47565b915050610d56565b508094505050505090565b610f41610f3b612342565b82612411565b610f80576040517f08c379a0000000000000000000000000000000000000000000000000000000008152600401610f7790614001565b60405180910390fd5b610f8b8383836124a6565b505050565b610fab83838360405180602001604052806000815250611cbd565b505050565b60606000610fbe6006612403565b905060008060005b83811015611066573373ffffffffffffffffffffffffffffffffffffffff16600a6000600184610ff69190613ee4565b815260200190815260200160002060010160009054906101000a900473ffffffffffffffffffffffffffffffffffffffff1673ffffffffffffffffffffffffffffffffffffffff1603611053576001836110509190613ee4565b92505b808061105e90613f47565b915050610fc6565b5060008267ffffffffffffffff811115611083576110826137b1565b5b6040519080825280602002602001820160405280156110bc57816020015b6110a961327c565b8152602001906001900390816110a15790505b50905060005b84811015611291573373ffffffffffffffffffffffffffffffffffffffff16600a60006001846110f29190613ee4565b815260200190815260200160002060010160009054906101000a900473ffffffffffffffffffffffffffffffffffffffff1673ffffffffffffffffffffffffffffffffffffffff160361127e57600060018261114e9190613ee4565b90506000600a60008381526020019081526020016000209050806040518060a0016040529081600082015481526020016001820160009054906101000a900473ffffffffffffffffffffffffffffffffffffffff1673ffffffffffffffffffffffffffffffffffffffff1673ffffffffffffffffffffffffffffffffffffffff1681526020016002820160009054906101000a900473ffffffffffffffffffffffffffffffffffffffff1673ffffffffffffffffffffffffffffffffffffffff1673ffffffffffffffffffffffffffffffffffffffff168152602001600382015481526020016004820160009054906101000a900460ff16151515158152505084868151811061126157611260613f18565b5b60200260200101819052506001856112799190613ee4565b945050505b808061128990613f47565b9150506110c2565b508094505050505090565b6000806112a88361279f565b9050600073ffffffffffffffffffffffffffffffffffffffff168173ffffffffffffffffffffffffffffffffffffffff1603611319576040517f08c379a00000000000000000000000000000000000000000000000000000000081526004016113109061406d565b60405180910390fd5b80915050919050565b60008073ffffffffffffffffffffffffffffffffffffffff168273ffffffffffffffffffffffffffffffffffffffff1603611392576040517f08c379a0000000000000000000000000000000000000000000000000000000008152600401611389906140ff565b60405180910390fd5b600360008373ffffffffffffffffffffffffffffffffffffffff1673ffffffffffffffffffffffffffffffffffffffff168152602001908152602001600020549050919050565b60006113e560066127dc565b60006113f16006612403565b90506113fd33826127f2565b611408818486612a0f565b8091505092915050565b600b60009054906101000a900473ffffffffffffffffffffffffffffffffffffffff1681565b60606001805461144790613d2c565b80601f016020809104026020016040519081016040528092919081815260200182805461147390613d2c565b80156114c05780601f10611495576101008083540402835291602001916114c0565b820191906000526020600020905b8154815290600101906020018083116114a357829003601f168201915b5050505050905090565b6060806060806060600080600860008973ffffffffffffffffffffffffffffffffffffffff1673ffffffffffffffffffffffffffffffffffffffff168152602001908152602001600020905080600001816001018260020183600301846004018560050160009054906101000a900473ffffffffffffffffffffffffffffffffffffffff1685805461155b90613d2c565b80601f016020809104026020016040519081016040528092919081815260200182805461158790613d2c565b80156115d45780601f106115a9576101008083540402835291602001916115d4565b820191906000526020600020905b8154815290600101906020018083116115b757829003601f168201915b505050505095508480546115e790613d2c565b80601f016020809104026020016040519081016040528092919081815260200182805461161390613d2c565b80156116605780601f1061163557610100808354040283529160200191611660565b820191906000526020600020905b81548152906001019060200180831161164357829003601f168201915b5050505050945083805461167390613d2c565b80601f016020809104026020016040519081016040528092919081815260200182805461169f90613d2c565b80156116ec5780601f106116c1576101008083540402835291602001916116ec565b820191906000526020600020905b8154815290600101906020018083116116cf57829003601f168201915b505050505093508280546116ff90613d2c565b80601f016020809104026020016040519081016040528092919081815260200182805461172b90613d2c565b80156117785780601f1061174d57610100808354040283529160200191611778565b820191906000526020600020905b81548152906001019060200180831161175b57829003601f168201915b5050505050925081805461178b90613d2c565b80601f01602080910402602001604051908101604052809291908181526020018280546117b790613d2c565b80156118045780601f106117d957610100808354040283529160200191611804565b820191906000526020600020905b8154815290600101906020018083116117e757829003601f168201915b505050505091509650965096509650965096505091939550919395565b61183361182c612342565b8383612c29565b5050565b600860205280600052604060002060009150905080600001805461185a90613d2c565b80601f016020809104026020016040519081016040528092919081815260200182805461188690613d2c565b80156118d35780601f106118a8576101008083540402835291602001916118d3565b820191906000526020600020905b8154815290600101906020018083116118b657829003601f168201915b5050505050908060010180546118e890613d2c565b80601f016020809104026020016040519081016040528092919081815260200182805461191490613d2c565b80156119615780601f1061193657610100808354040283529160200191611961565b820191906000526020600020905b81548152906001019060200180831161194457829003601f168201915b50505050509080600201805461197690613d2c565b80601f01602080910402602001604051908101604052809291908181526020018280546119a290613d2c565b80156119ef5780601f106119c4576101008083540402835291602001916119ef565b820191906000526020600020905b8154815290600101906020018083116119d257829003601f168201915b505050505090806003018054611a0490613d2c565b80601f0160208091040260200160405190810160405280929190818152602001828054611a3090613d2c565b8015611a7d5780601f10611a5257610100808354040283529160200191611a7d565b820191906000526020600020905b815481529060010190602001808311611a6057829003601f168201915b505050505090806004018054611a9290613d2c565b80601f0160208091040260200160405190810160405280929190818152602001828054611abe90613d2c565b8015611b0b5780601f10611ae057610100808354040283529160200191611b0b565b820191906000526020600020905b815481529060010190602001808311611aee57829003601f168201915b5050505050908060050160009054906101000a900473ffffffffffffffffffffffffffffffffffffffff16905086565b6000600860003373ffffffffffffffffffffffffffffffffffffffff1673ffffffffffffffffffffffffffffffffffffffff168152602001908152602001600020905085816000019081611b8f91906142cb565b5084816001019081611ba191906142cb565b5083816002019081611bb391906142cb565b5082816003019081611bc591906142cb565b5081816004019081611bd791906142cb565b50338160050160006101000a81548173ffffffffffffffffffffffffffffffffffffffff021916908373ffffffffffffffffffffffffffffffffffffffff160217905550505050505050565b600b60009054906101000a900473ffffffffffffffffffffffffffffffffffffffff1673ffffffffffffffffffffffffffffffffffffffff163373ffffffffffffffffffffffffffffffffffffffff1614611cb3576040517f08c379a0000000000000000000000000000000000000000000000000000000008152600401611caa9061440f565b60405180910390fd5b8060098190555050565b611cce611cc8612342565b83612411565b611d0d576040517f08c379a0000000000000000000000000000000000000000000000000000000008152600401611d0490614001565b60405180910390fd5b611d1984848484612d95565b50505050565b6000600a6000838152602001908152602001600020600301549050803414611d7c576040517f08c379a0000000000000000000000000000000000000000000000000000000008152600401611d73906144a1565b60405180910390fd5b33600a600084815260200190815260200160002060020160006101000a81548173ffffffffffffffffffffffffffffffffffffffff021916908373ffffffffffffffffffffffffffffffffffffffff1602179055506001600a600084815260200190815260200160002060040160006101000a81548160ff0219169083151502179055506000600a600084815260200190815260200160002060010160006101000a81548173ffffffffffffffffffffffffffffffffffffffff021916908373ffffffffffffffffffffffffffffffffffffffff160217905550611e6060076127dc565b813373ffffffffffffffffffffffffffffffffffffffff163073ffffffffffffffffffffffffffffffffffffffff167fddf252ad1be2c89b69c2b068fc378daa952ba7f163c4a11628f55a4df523b3ef60405160405180910390a4600b60009054906101000a900473ffffffffffffffffffffffffffffffffffffffff1673ffffffffffffffffffffffffffffffffffffffff166108fc6009549081150290604051600060405180830381858888f19350505050158015611f25573d6000803e3d6000fd5b50600a600083815260200190815260200160002060010160009054906101000a900473ffffffffffffffffffffffffffffffffffffffff1673ffffffffffffffffffffffffffffffffffffffff166108fc349081150290604051600060405180830381858888f19350505050158015611fa2573d6000803e3d6000fd5b505050565b6060611fb2826122f7565b6000611fbc612df1565b90506000815111611fdc5760405180602001604052806000815250612007565b80611fe684612e08565b604051602001611ff79291906144fd565b6040516020818303038152906040525b915050919050565b3373ffffffffffffffffffffffffffffffffffffffff16600a600084815260200190815260200160002060020160009054906101000a900473ffffffffffffffffffffffffffffffffffffffff1673ffffffffffffffffffffffffffffffffffffffff16146120b3576040517f08c379a00000000000000000000000000000000000000000000000000000000081526004016120aa90614593565b60405180910390fd5b60095434146120f7576040517f08c379a00000000000000000000000000000000000000000000000000000000081526004016120ee90614625565b60405180910390fd5b6000600a600084815260200190815260200160002060040160006101000a81548160ff02191690831515021790555080600a60008481526020019081526020016000206003018190555033600a600084815260200190815260200160002060010160006101000a81548173ffffffffffffffffffffffffffffffffffffffff021916908373ffffffffffffffffffffffffffffffffffffffff16021790555030600a600084815260200190815260200160002060020160006101000a81548173ffffffffffffffffffffffffffffffffffffffff021916908373ffffffffffffffffffffffffffffffffffffffff1602179055506121f56007612ed6565b5050565b6000600560008473ffffffffffffffffffffffffffffffffffffffff1673ffffffffffffffffffffffffffffffffffffffff16815260200190815260200160002060008373ffffffffffffffffffffffffffffffffffffffff1673ffffffffffffffffffffffffffffffffffffffff16815260200190815260200160002060009054906101000a900460ff16905092915050565b60007f01ffc9a7000000000000000000000000000000000000000000000000000000007bffffffffffffffffffffffffffffffffffffffffffffffffffffffff1916827bffffffffffffffffffffffffffffffffffffffffffffffffffffffff1916149050919050565b61230081612f32565b61233f576040517f08c379a00000000000000000000000000000000000000000000000000000000081526004016123369061406d565b60405180910390fd5b50565b600033905090565b816004600083815260200190815260200160002060006101000a81548173ffffffffffffffffffffffffffffffffffffffff021916908373ffffffffffffffffffffffffffffffffffffffff160217905550808273ffffffffffffffffffffffffffffffffffffffff166123bd8361129c565b73ffffffffffffffffffffffffffffffffffffffff167f8c5be1e5ebec7d5bd14f71427d1e84f3dd0314c0f7b2291e5b200ac8c7c3b92560405160405180910390a45050565b600081600001549050919050565b60008061241d8361129c565b90508073ffffffffffffffffffffffffffffffffffffffff168473ffffffffffffffffffffffffffffffffffffffff16148061245f575061245e81856121f9565b5b8061249d57508373ffffffffffffffffffffffffffffffffffffffff16612485846107d0565b73ffffffffffffffffffffffffffffffffffffffff16145b91505092915050565b8273ffffffffffffffffffffffffffffffffffffffff166124c68261129c565b73ffffffffffffffffffffffffffffffffffffffff161461251c576040517f08c379a0000000000000000000000000000000000000000000000000000000008152600401612513906146b7565b60405180910390fd5b600073ffffffffffffffffffffffffffffffffffffffff168273ffffffffffffffffffffffffffffffffffffffff160361258b576040517f08c379a000000000000000000000000000000000000000000000000000000000815260040161258290614749565b60405180910390fd5b6125988383836001612f73565b8273ffffffffffffffffffffffffffffffffffffffff166125b88261129c565b73ffffffffffffffffffffffffffffffffffffffff161461260e576040517f08c379a0000000000000000000000000000000000000000000000000000000008152600401612605906146b7565b60405180910390fd5b6004600082815260200190815260200160002060006101000a81549073ffffffffffffffffffffffffffffffffffffffff02191690556001600360008573ffffffffffffffffffffffffffffffffffffffff1673ffffffffffffffffffffffffffffffffffffffff168152602001908152602001600020600082825403925050819055506001600360008473ffffffffffffffffffffffffffffffffffffffff1673ffffffffffffffffffffffffffffffffffffffff16815260200190815260200160002060008282540192505081905550816002600083815260200190815260200160002060006101000a81548173ffffffffffffffffffffffffffffffffffffffff021916908373ffffffffffffffffffffffffffffffffffffffff160217905550808273ffffffffffffffffffffffffffffffffffffffff168473ffffffffffffffffffffffffffffffffffffffff167fddf252ad1be2c89b69c2b068fc378daa952ba7f163c4a11628f55a4df523b3ef60405160405180910390a461279a8383836001612f79565b505050565b60006002600083815260200190815260200160002060009054906101000a900473ffffffffffffffffffffffffffffffffffffffff169050919050565b6001816000016000828254019250508190555050565b600073ffffffffffffffffffffffffffffffffffffffff168273ffffffffffffffffffffffffffffffffffffffff1603612861576040517f08c379a0000000000000000000000000000000000000000000000000000000008152600401612858906147b5565b60405180910390fd5b61286a81612f32565b156128aa576040517f08c379a00000000000000000000000000000000000000000000000000000000081526004016128a190614821565b60405180910390fd5b6128b8600083836001612f73565b6128c181612f32565b15612901576040517f08c379a00000000000000000000000000000000000000000000000000000000081526004016128f890614821565b60405180910390fd5b6001600360008473ffffffffffffffffffffffffffffffffffffffff1673ffffffffffffffffffffffffffffffffffffffff16815260200190815260200160002060008282540192505081905550816002600083815260200190815260200160002060006101000a81548173ffffffffffffffffffffffffffffffffffffffff021916908373ffffffffffffffffffffffffffffffffffffffff160217905550808273ffffffffffffffffffffffffffffffffffffffff16600073ffffffffffffffffffffffffffffffffffffffff167fddf252ad1be2c89b69c2b068fc378daa952ba7f163c4a11628f55a4df523b3ef60405160405180910390a4612a0b600083836001612f79565b5050565b60008211612a52576040517f08c379a0000000000000000000000000000000000000000000000000000000008152600401612a499061488d565b60405180910390fd5b6009543414612a96576040517f08c379a0000000000000000000000000000000000000000000000000000000008152600401612a8d90614625565b60405180910390fd5b80600c60008581526020019081526020016000209081612ab691906142cb565b506040518060a001604052808481526020013373ffffffffffffffffffffffffffffffffffffffff1681526020013073ffffffffffffffffffffffffffffffffffffffff16815260200183815260200160001515815250600a60008581526020019081526020016000206000820151816000015560208201518160010160006101000a81548173ffffffffffffffffffffffffffffffffffffffff021916908373ffffffffffffffffffffffffffffffffffffffff16021790555060408201518160020160006101000a81548173ffffffffffffffffffffffffffffffffffffffff021916908373ffffffffffffffffffffffffffffffffffffffff1602179055506060820151816003015560808201518160040160006101000a81548160ff021916908315150217905550905050827fb640004f1d14576d0c209e240cad0410e0d8c0c33a09375861fbadae2588a98d3330856000604051612c1c94939291906148ad565b60405180910390a2505050565b8173ffffffffffffffffffffffffffffffffffffffff168373ffffffffffffffffffffffffffffffffffffffff1603612c97576040517f08c379a0000000000000000000000000000000000000000000000000000000008152600401612c8e9061493e565b60405180910390fd5b80600560008573ffffffffffffffffffffffffffffffffffffffff1673ffffffffffffffffffffffffffffffffffffffff16815260200190815260200160002060008473ffffffffffffffffffffffffffffffffffffffff1673ffffffffffffffffffffffffffffffffffffffff16815260200190815260200160002060006101000a81548160ff0219169083151502179055508173ffffffffffffffffffffffffffffffffffffffff168373ffffffffffffffffffffffffffffffffffffffff167f17307eab39ab6107e8899845ad3d59bd9653f200f220920489ca2b5937696c3183604051612d88919061338d565b60405180910390a3505050565b612da08484846124a6565b612dac84848484612f7f565b612deb576040517f08c379a0000000000000000000000000000000000000000000000000000000008152600401612de2906149d0565b60405180910390fd5b50505050565b606060405180602001604052806000815250905090565b606060006001612e1784613106565b01905060008167ffffffffffffffff811115612e3657612e356137b1565b5b6040519080825280601f01601f191660200182016040528015612e685781602001600182028036833780820191505090505b509050600082602001820190505b600115612ecb578080600190039150507f3031323334353637383961626364656600000000000000000000000000000000600a86061a8153600a8581612ebf57612ebe6149f0565b5b04945060008503612e76575b819350505050919050565b60008160000154905060008111612f22576040517f08c379a0000000000000000000000000000000000000000000000000000000008152600401612f1990614a6b565b60405180910390fd5b6001810382600001819055505050565b60008073ffffffffffffffffffffffffffffffffffffffff16612f548361279f565b73ffffffffffffffffffffffffffffffffffffffff1614159050919050565b50505050565b50505050565b6000612fa08473ffffffffffffffffffffffffffffffffffffffff16613259565b156130f9578373ffffffffffffffffffffffffffffffffffffffff1663150b7a02612fc9612342565b8786866040518563ffffffff1660e01b8152600401612feb9493929190614ae0565b6020604051808303816000875af192505050801561302757506040513d601f19601f820116820180604052508101906130249190614b41565b60015b6130a9573d8060008114613057576040519150601f19603f3d011682016040523d82523d6000602084013e61305c565b606091505b5060008151036130a1576040517f08c379a0000000000000000000000000000000000000000000000000000000008152600401613098906149d0565b60405180910390fd5b805181602001fd5b63150b7a0260e01b7bffffffffffffffffffffffffffffffffffffffffffffffffffffffff1916817bffffffffffffffffffffffffffffffffffffffffffffffffffffffff1916149150506130fe565b600190505b949350505050565b600080600090507a184f03e93ff9f4daa797ed6e38ed64bf6a1f0100000000000000008310613164577a184f03e93ff9f4daa797ed6e38ed64bf6a1f010000000000000000838161315a576131596149f0565b5b0492506040810190505b6d04ee2d6d415b85acef810000000083106131a1576d04ee2d6d415b85acef81000000008381613197576131966149f0565b5b0492506020810190505b662386f26fc1000083106131d057662386f26fc1000083816131c6576131c56149f0565b5b0492506010810190505b6305f5e10083106131f9576305f5e10083816131ef576131ee6149f0565b5b0492506008810190505b612710831061321e576127108381613214576132136149f0565b5b0492506004810190505b606483106132415760648381613237576132366149f0565b5b0492506002810190505b600a8310613250576001810190505b80915050919050565b6000808273ffffffffffffffffffffffffffffffffffffffff163b119050919050565b6040518060a0016040528060008152602001600073ffffffffffffffffffffffffffffffffffffffff168152602001600073ffffffffffffffffffffffffffffffffffffffff168152602001600081526020016000151581525090565b6000604051905090565b600080fd5b600080fd5b60007fffffffff0000000000000000000000000000000000000000000000000000000082169050919050565b613322816132ed565b811461332d57600080fd5b50565b60008135905061333f81613319565b92915050565b60006020828403121561335b5761335a6132e3565b5b600061336984828501613330565b91505092915050565b60008115159050919050565b61338781613372565b82525050565b60006020820190506133a2600083018461337e565b92915050565b600081519050919050565b600082825260208201905092915050565b60005b838110156133e25780820151818401526020810190506133c7565b60008484015250505050565b6000601f19601f8301169050919050565b600061340a826133a8565b61341481856133b3565b93506134248185602086016133c4565b61342d816133ee565b840191505092915050565b6000602082019050818103600083015261345281846133ff565b905092915050565b6000819050919050565b61346d8161345a565b811461347857600080fd5b50565b60008135905061348a81613464565b92915050565b6000602082840312156134a6576134a56132e3565b5b60006134b48482850161347b565b91505092915050565b600073ffffffffffffffffffffffffffffffffffffffff82169050919050565b60006134e8826134bd565b9050919050565b6134f8816134dd565b82525050565b600060208201905061351360008301846134ef565b92915050565b613522816134dd565b811461352d57600080fd5b50565b60008135905061353f81613519565b92915050565b6000806040838503121561355c5761355b6132e3565b5b600061356a85828601613530565b925050602061357b8582860161347b565b9150509250929050565b600081519050919050565b600082825260208201905092915050565b6000819050602082019050919050565b6135ba8161345a565b82525050565b60006135cb826134bd565b9050919050565b6135db816135c0565b82525050565b6135ea81613372565b82525050565b60a08201600082015161360660008501826135b1565b50602082015161361960208501826135d2565b50604082015161362c60408501826135d2565b50606082015161363f60608501826135b1565b50608082015161365260808501826135e1565b50505050565b600061366483836135f0565b60a08301905092915050565b6000602082019050919050565b600061368882613585565b6136928185613590565b935061369d836135a1565b8060005b838110156136ce5781516136b58882613658565b97506136c083613670565b9250506001810190506136a1565b5085935050505092915050565b600060208201905081810360008301526136f5818461367d565b905092915050565b6137068161345a565b82525050565b600060208201905061372160008301846136fd565b92915050565b6000806000606084860312156137405761373f6132e3565b5b600061374e86828701613530565b935050602061375f86828701613530565b92505060406137708682870161347b565b9150509250925092565b6000602082840312156137905761378f6132e3565b5b600061379e84828501613530565b91505092915050565b600080fd5b600080fd5b7f4e487b7100000000000000000000000000000000000000000000000000000000600052604160045260246000fd5b6137e9826133ee565b810181811067ffffffffffffffff82111715613808576138076137b1565b5b80604052505050565b600061381b6132d9565b905061382782826137e0565b919050565b600067ffffffffffffffff821115613847576138466137b1565b5b613850826133ee565b9050602081019050919050565b82818337600083830152505050565b600061387f61387a8461382c565b613811565b90508281526020810184848401111561389b5761389a6137ac565b5b6138a684828561385d565b509392505050565b600082601f8301126138c3576138c26137a7565b5b81356138d384826020860161386c565b91505092915050565b600080604083850312156138f3576138f26132e3565b5b600083013567ffffffffffffffff811115613911576139106132e8565b5b61391d858286016138ae565b925050602061392e8582860161347b565b9150509250929050565b613941816135c0565b82525050565b600060208201905061395c6000830184613938565b92915050565b600060c082019050818103600083015261397c81896133ff565b9050818103602083015261399081886133ff565b905081810360408301526139a481876133ff565b905081810360608301526139b881866133ff565b905081810360808301526139cc81856133ff565b90506139db60a08301846134ef565b979650505050505050565b6139ef81613372565b81146139fa57600080fd5b50565b600081359050613a0c816139e6565b92915050565b60008060408385031215613a2957613a286132e3565b5b6000613a3785828601613530565b9250506020613a48858286016139fd565b9150509250929050565b600080600080600060a08688031215613a6e57613a6d6132e3565b5b600086013567ffffffffffffffff811115613a8c57613a8b6132e8565b5b613a98888289016138ae565b955050602086013567ffffffffffffffff811115613ab957613ab86132e8565b5b613ac5888289016138ae565b945050604086013567ffffffffffffffff811115613ae657613ae56132e8565b5b613af2888289016138ae565b935050606086013567ffffffffffffffff811115613b1357613b126132e8565b5b613b1f888289016138ae565b925050608086013567ffffffffffffffff811115613b4057613b3f6132e8565b5b613b4c888289016138ae565b9150509295509295909350565b600067ffffffffffffffff821115613b7457613b736137b1565b5b613b7d826133ee565b9050602081019050919050565b6000613b9d613b9884613b59565b613811565b905082815260208101848484011115613bb957613bb86137ac565b5b613bc484828561385d565b509392505050565b600082601f830112613be157613be06137a7565b5b8135613bf1848260208601613b8a565b91505092915050565b60008060008060808587031215613c1457613c136132e3565b5b6000613c2287828801613530565b9450506020613c3387828801613530565b9350506040613c448782880161347b565b925050606085013567ffffffffffffffff811115613c6557613c646132e8565b5b613c7187828801613bcc565b91505092959194509250565b60008060408385031215613c9457613c936132e3565b5b6000613ca28582860161347b565b9250506020613cb38582860161347b565b9150509250929050565b60008060408385031215613cd457613cd36132e3565b5b6000613ce285828601613530565b9250506020613cf385828601613530565b9150509250929050565b7f4e487b7100000000000000000000000000000000000000000000000000000000600052602260045260246000fd5b60006002820490506001821680613d4457607f821691505b602082108103613d5757613d56613cfd565b5b50919050565b7f4552433732313a20617070726f76616c20746f2063757272656e74206f776e6560008201527f7200000000000000000000000000000000000000000000000000000000000000602082015250565b6000613db96021836133b3565b9150613dc482613d5d565b604082019050919050565b60006020820190508181036000830152613de881613dac565b9050919050565b7f4552433732313a20617070726f76652063616c6c6572206973206e6f7420746f60008201527f6b656e206f776e6572206f7220617070726f76656420666f7220616c6c000000602082015250565b6000613e4b603d836133b3565b9150613e5682613def565b604082019050919050565b60006020820190508181036000830152613e7a81613e3e565b9050919050565b7f4e487b7100000000000000000000000000000000000000000000000000000000600052601160045260246000fd5b6000613ebb8261345a565b9150613ec68361345a565b9250828203905081811115613ede57613edd613e81565b5b92915050565b6000613eef8261345a565b9150613efa8361345a565b9250828201905080821115613f1257613f11613e81565b5b92915050565b7f4e487b7100000000000000000000000000000000000000000000000000000000600052603260045260246000fd5b6000613f528261345a565b91507fffffffffffffffffffffffffffffffffffffffffffffffffffffffffffffffff8203613f8457613f83613e81565b5b600182019050919050565b7f4552433732313a2063616c6c6572206973206e6f7420746f6b656e206f776e6560008201527f72206f7220617070726f76656400000000000000000000000000000000000000602082015250565b6000613feb602d836133b3565b9150613ff682613f8f565b604082019050919050565b6000602082019050818103600083015261401a81613fde565b9050919050565b7f4552433732313a20696e76616c696420746f6b656e2049440000000000000000600082015250565b60006140576018836133b3565b915061406282614021565b602082019050919050565b600060208201905081810360008301526140868161404a565b9050919050565b7f4552433732313a2061646472657373207a65726f206973206e6f74206120766160008201527f6c6964206f776e65720000000000000000000000000000000000000000000000602082015250565b60006140e96029836133b3565b91506140f48261408d565b604082019050919050565b60006020820190508181036000830152614118816140dc565b9050919050565b60008190508160005260206000209050919050565b60006020601f8301049050919050565b600082821b905092915050565b6000600883026141817fffffffffffffffffffffffffffffffffffffffffffffffffffffffffffffffff82614144565b61418b8683614144565b95508019841693508086168417925050509392505050565b6000819050919050565b60006141c86141c36141be8461345a565b6141a3565b61345a565b9050919050565b6000819050919050565b6141e2836141ad565b6141f66141ee826141cf565b848454614151565b825550505050565b600090565b61420b6141fe565b6142168184846141d9565b505050565b5b8181101561423a5761422f600082614203565b60018101905061421c565b5050565b601f82111561427f576142508161411f565b61425984614134565b81016020851015614268578190505b61427c61427485614134565b83018261421b565b50505b505050565b600082821c905092915050565b60006142a260001984600802614284565b1980831691505092915050565b60006142bb8383614291565b9150826002028217905092915050565b6142d4826133a8565b67ffffffffffffffff8111156142ed576142ec6137b1565b5b6142f78254613d2c565b61430282828561423e565b600060209050601f8311600181146143355760008415614323578287015190505b61432d85826142af565b865550614395565b601f1984166143438661411f565b60005b8281101561436b57848901518255600182019150602085019450602081019050614346565b868310156143885784890151614384601f891682614291565b8355505b6001600288020188555050505b505050505050565b7f4f6e6c7920746865206f776e65722063616e2063616c6c20746869732066756e60008201527f6374696f6e2e0000000000000000000000000000000000000000000000000000602082015250565b60006143f96026836133b3565b91506144048261439d565b604082019050919050565b60006020820190508181036000830152614428816143ec565b9050919050565b7f506c65617365207375626d6974207468652061736b696e67207072696365206960008201527f6e206f7264657220746f20636f6d706c65746520746865207075726368617365602082015250565b600061448b6040836133b3565b91506144968261442f565b604082019050919050565b600060208201905081810360008301526144ba8161447e565b9050919050565b600081905092915050565b60006144d7826133a8565b6144e181856144c1565b93506144f18185602086016133c4565b80840191505092915050565b600061450982856144cc565b915061451582846144cc565b91508190509392505050565b7f4f6e6c79206974656d206f776e65722063616e20706572666f726d207468697360008201527f206f7065726174696f6e00000000000000000000000000000000000000000000602082015250565b600061457d602a836133b3565b915061458882614521565b604082019050919050565b600060208201905081810360008301526145ac81614570565b9050919050565b7f5072696365206d75737420626520657175616c20746f206c697374696e67207060008201527f7269636500000000000000000000000000000000000000000000000000000000602082015250565b600061460f6024836133b3565b915061461a826145b3565b604082019050919050565b6000602082019050818103600083015261463e81614602565b9050919050565b7f4552433732313a207472616e736665722066726f6d20696e636f72726563742060008201527f6f776e6572000000000000000000000000000000000000000000000000000000602082015250565b60006146a16025836133b3565b91506146ac82614645565b604082019050919050565b600060208201905081810360008301526146d081614694565b9050919050565b7f4552433732313a207472616e7366657220746f20746865207a65726f2061646460008201527f7265737300000000000000000000000000000000000000000000000000000000602082015250565b60006147336024836133b3565b915061473e826146d7565b604082019050919050565b6000602082019050818103600083015261476281614726565b9050919050565b7f4552433732313a206d696e7420746f20746865207a65726f2061646472657373600082015250565b600061479f6020836133b3565b91506147aa82614769565b602082019050919050565b600060208201905081810360008301526147ce81614792565b9050919050565b7f4552433732313a20746f6b656e20616c7265616479206d696e74656400000000600082015250565b600061480b601c836133b3565b9150614816826147d5565b602082019050919050565b6000602082019050818103600083015261483a816147fe565b9050919050565b7f5072696365206d757374206265206174206c6561737420312077656900000000600082015250565b6000614877601c836133b3565b915061488282614841565b602082019050919050565b600060208201905081810360008301526148a68161486a565b9050919050565b60006080820190506148c260008301876134ef565b6148cf60208301866134ef565b6148dc60408301856136fd565b6148e9606083018461337e565b95945050505050565b7f4552433732313a20617070726f766520746f2063616c6c657200000000000000600082015250565b60006149286019836133b3565b9150614933826148f2565b602082019050919050565b600060208201905081810360008301526149578161491b565b9050919050565b7f4552433732313a207472616e7366657220746f206e6f6e20455243373231526560008201527f63656976657220696d706c656d656e7465720000000000000000000000000000602082015250565b60006149ba6032836133b3565b91506149c58261495e565b604082019050919050565b600060208201905081810360008301526149e9816149ad565b9050919050565b7f4e487b7100000000000000000000000000000000000000000000000000000000600052601260045260246000fd5b7f436f756e7465723a2064656372656d656e74206f766572666c6f770000000000600082015250565b6000614a55601b836133b3565b9150614a6082614a1f565b602082019050919050565b60006020820190508181036000830152614a8481614a48565b9050919050565b600081519050919050565b600082825260208201905092915050565b6000614ab282614a8b565b614abc8185614a96565b9350614acc8185602086016133c4565b614ad5816133ee565b840191505092915050565b6000608082019050614af560008301876134ef565b614b0260208301866134ef565b614b0f60408301856136fd565b8181036060830152614b218184614aa7565b905095945050505050565b600081519050614b3b81613319565b92915050565b600060208284031215614b5757614b566132e3565b5b6000614b6584828501614b2c565b9150509291505056fea26469706673582212203022724bb6c08b5e9e08ea2ca2286721ebc774d5652a7d9d4c3a191372bc4b2b64736f6c63430008110033",
  "linkReferences": {},
  "deployedLinkReferences": {}
}