{
  "_format": "hh-sol-artifact-1",
  "contractName": "UserProfile",
  "sourceName": "contracts/UserProfile.sol",
  "abi": [
    {
      "inputs": [],
      "stateMutability": "nonpayable",
      "type": "constructor"
    },
    {
      "anonymous": false,
      "inputs": [
        {
          "indexed": false,
          "internalType": "address",
          "name": "userAddress",
          "type": "address"
        },
        {
          "indexed": false,
          "internalType": "string",
          "name": "name",
          "type": "string"
        },
        {
          "indexed": false,
          "internalType": "string",
          "name": "email",
          "type": "string"
        },
        {
          "indexed": false,
          "internalType": "string",
          "name": "profilePicture",
          "type": "string"
        },
        {
          "indexed": false,
          "internalType": "string",
          "name": "profilebanner",
          "type": "string"
        }
      ],
      "name": "UserRegistered",
      "type": "event"
    },
    {
      "anonymous": false,
      "inputs": [
        {
          "indexed": false,
          "internalType": "address",
          "name": "userAddress",
          "type": "address"
        },
        {
          "indexed": false,
          "internalType": "string",
          "name": "name",
          "type": "string"
        },
        {
          "indexed": false,
          "internalType": "string",
          "name": "email",
          "type": "string"
        },
        {
          "indexed": false,
          "internalType": "string",
          "name": "profilePicture",
          "type": "string"
        },
        {
          "indexed": false,
          "internalType": "string",
          "name": "profilebanner",
          "type": "string"
        }
      ],
      "name": "UserUpdated",
      "type": "event"
    },
    {
      "inputs": [
        {
          "internalType": "address",
          "name": "adminAddress",
          "type": "address"
        }
      ],
      "name": "demoteAdmin",
      "outputs": [],
      "stateMutability": "nonpayable",
      "type": "function"
    },
    {
      "inputs": [
        {
          "internalType": "address",
          "name": "userAddress",
          "type": "address"
        }
      ],
      "name": "getUser",
      "outputs": [
        {
          "internalType": "string",
          "name": "name",
          "type": "string"
        },
        {
          "internalType": "string",
          "name": "email",
          "type": "string"
        },
        {
          "internalType": "string",
          "name": "profilePicture",
          "type": "string"
        },
        {
          "internalType": "string",
          "name": "profilebanner",
          "type": "string"
        }
      ],
      "stateMutability": "view",
      "type": "function"
    },
    {
      "inputs": [
        {
          "internalType": "address",
          "name": "adminAddress",
          "type": "address"
        }
      ],
      "name": "promoteAdmin",
      "outputs": [],
      "stateMutability": "nonpayable",
      "type": "function"
    },
    {
      "inputs": [
        {
          "internalType": "string",
          "name": "_name",
          "type": "string"
        },
        {
          "internalType": "string",
          "name": "_email",
          "type": "string"
        },
        {
          "internalType": "string",
          "name": "_profilePicture",
          "type": "string"
        },
        {
          "internalType": "string",
          "name": "_profilebanner",
          "type": "string"
        }
      ],
      "name": "registerUser",
      "outputs": [],
      "stateMutability": "nonpayable",
      "type": "function"
    },
    {
      "inputs": [
        {
          "internalType": "string",
          "name": "_name",
          "type": "string"
        },
        {
          "internalType": "string",
          "name": "_email",
          "type": "string"
        },
        {
          "internalType": "string",
          "name": "_profilePicture",
          "type": "string"
        },
        {
          "internalType": "string",
          "name": "_profilebanner",
          "type": "string"
        }
      ],
      "name": "updateUser",
      "outputs": [],
      "stateMutability": "nonpayable",
      "type": "function"
    }
  ],
  "bytecode": "0x608060405234801561001057600080fd5b5060018060003373ffffffffffffffffffffffffffffffffffffffff1673ffffffffffffffffffffffffffffffffffffffff16815260200190815260200160002060006101000a81548160ff021916908315150217905550611183806100776000396000f3fe608060405234801561001057600080fd5b50600436106100575760003560e01c8063569abd8d1461005c5780636f77926b1461007857806393e54a56146100ab578063b5c24a01146100c7578063df698fc9146100e3575b600080fd5b610076600480360381019061007191906109bf565b6100ff565b005b610092600480360381019061008d91906109bf565b6101ec565b6040516100a29493929190610a7c565b60405180910390f35b6100c560048036038101906100c09190610c12565b610535565b005b6100e160048036038101906100dc9190610c12565b610644565b005b6100fd60048036038101906100f891906109bf565b6107f1565b005b60011515600160003373ffffffffffffffffffffffffffffffffffffffff1673ffffffffffffffffffffffffffffffffffffffff16815260200190815260200160002060009054906101000a900460ff16151514610192576040517f08c379a000000000000000000000000000000000000000000000000000000000815260040161018990610d5b565b60405180910390fd5b60018060008373ffffffffffffffffffffffffffffffffffffffff1673ffffffffffffffffffffffffffffffffffffffff16815260200190815260200160002060006101000a81548160ff02191690831515021790555050565b6060806060806000808673ffffffffffffffffffffffffffffffffffffffff1673ffffffffffffffffffffffffffffffffffffffff1681526020019081526020016000206000016000808773ffffffffffffffffffffffffffffffffffffffff1673ffffffffffffffffffffffffffffffffffffffff1681526020019081526020016000206001016000808873ffffffffffffffffffffffffffffffffffffffff1673ffffffffffffffffffffffffffffffffffffffff1681526020019081526020016000206002016000808973ffffffffffffffffffffffffffffffffffffffff1673ffffffffffffffffffffffffffffffffffffffff16815260200190815260200160002060030183805461030290610daa565b80601f016020809104026020016040519081016040528092919081815260200182805461032e90610daa565b801561037b5780601f106103505761010080835404028352916020019161037b565b820191906000526020600020905b81548152906001019060200180831161035e57829003601f168201915b5050505050935082805461038e90610daa565b80601f01602080910402602001604051908101604052809291908181526020018280546103ba90610daa565b80156104075780601f106103dc57610100808354040283529160200191610407565b820191906000526020600020905b8154815290600101906020018083116103ea57829003601f168201915b5050505050925081805461041a90610daa565b80601f016020809104026020016040519081016040528092919081815260200182805461044690610daa565b80156104935780601f1061046857610100808354040283529160200191610493565b820191906000526020600020905b81548152906001019060200180831161047657829003601f168201915b505050505091508080546104a690610daa565b80601f01602080910402602001604051908101604052809291908181526020018280546104d290610daa565b801561051f5780601f106104f45761010080835404028352916020019161051f565b820191906000526020600020905b81548152906001019060200180831161050257829003601f168201915b5050505050905093509350935093509193509193565b6040518060a00160405280858152602001848152602001838152602001828152602001428152506000803373ffffffffffffffffffffffffffffffffffffffff1673ffffffffffffffffffffffffffffffffffffffff16815260200190815260200160002060008201518160000190816105af9190610f91565b5060208201518160010190816105c59190610f91565b5060408201518160020190816105db9190610f91565b5060608201518160030190816105f19190610f91565b50608082015181600401559050507fc6a389e0d7f85976a7f15ae09ba493cd9cd268e1da864fc1c540b3517da90fdd3385858585604051610636959493929190611072565b60405180910390a150505050565b60008451111561069e57836000803373ffffffffffffffffffffffffffffffffffffffff1673ffffffffffffffffffffffffffffffffffffffff168152602001908152602001600020600001908161069c9190610f91565b505b6000835111156106f857826000803373ffffffffffffffffffffffffffffffffffffffff1673ffffffffffffffffffffffffffffffffffffffff16815260200190815260200160002060010190816106f69190610f91565b505b60008251111561075257816000803373ffffffffffffffffffffffffffffffffffffffff1673ffffffffffffffffffffffffffffffffffffffff16815260200190815260200160002060020190816107509190610f91565b505b6000815111156107ac57806000803373ffffffffffffffffffffffffffffffffffffffff1673ffffffffffffffffffffffffffffffffffffffff16815260200190815260200160002060030190816107aa9190610f91565b505b7f02b02647fcca01b6b965b08003002b1a0901475b44aab1293b631ed952c013d933858585856040516107e3959493929190611072565b60405180910390a150505050565b60011515600160003373ffffffffffffffffffffffffffffffffffffffff1673ffffffffffffffffffffffffffffffffffffffff16815260200190815260200160002060009054906101000a900460ff16151514610884576040517f08c379a000000000000000000000000000000000000000000000000000000000815260040161087b90610d5b565b60405180910390fd5b8073ffffffffffffffffffffffffffffffffffffffff163373ffffffffffffffffffffffffffffffffffffffff16036108f2576040517f08c379a00000000000000000000000000000000000000000000000000000000081526004016108e99061112d565b60405180910390fd5b6000600160008373ffffffffffffffffffffffffffffffffffffffff1673ffffffffffffffffffffffffffffffffffffffff16815260200190815260200160002060006101000a81548160ff02191690831515021790555050565b6000604051905090565b600080fd5b600080fd5b600073ffffffffffffffffffffffffffffffffffffffff82169050919050565b600061098c82610961565b9050919050565b61099c81610981565b81146109a757600080fd5b50565b6000813590506109b981610993565b92915050565b6000602082840312156109d5576109d4610957565b5b60006109e3848285016109aa565b91505092915050565b600081519050919050565b600082825260208201905092915050565b60005b83811015610a26578082015181840152602081019050610a0b565b60008484015250505050565b6000601f19601f8301169050919050565b6000610a4e826109ec565b610a5881856109f7565b9350610a68818560208601610a08565b610a7181610a32565b840191505092915050565b60006080820190508181036000830152610a968187610a43565b90508181036020830152610aaa8186610a43565b90508181036040830152610abe8185610a43565b90508181036060830152610ad28184610a43565b905095945050505050565b600080fd5b600080fd5b7f4e487b7100000000000000000000000000000000000000000000000000000000600052604160045260246000fd5b610b1f82610a32565b810181811067ffffffffffffffff82111715610b3e57610b3d610ae7565b5b80604052505050565b6000610b5161094d565b9050610b5d8282610b16565b919050565b600067ffffffffffffffff821115610b7d57610b7c610ae7565b5b610b8682610a32565b9050602081019050919050565b82818337600083830152505050565b6000610bb5610bb084610b62565b610b47565b905082815260208101848484011115610bd157610bd0610ae2565b5b610bdc848285610b93565b509392505050565b600082601f830112610bf957610bf8610add565b5b8135610c09848260208601610ba2565b91505092915050565b60008060008060808587031215610c2c57610c2b610957565b5b600085013567ffffffffffffffff811115610c4a57610c4961095c565b5b610c5687828801610be4565b945050602085013567ffffffffffffffff811115610c7757610c7661095c565b5b610c8387828801610be4565b935050604085013567ffffffffffffffff811115610ca457610ca361095c565b5b610cb087828801610be4565b925050606085013567ffffffffffffffff811115610cd157610cd061095c565b5b610cdd87828801610be4565b91505092959194509250565b7f4f6e6c792061646d696e732063616e2063616c6c20746869732066756e63746960008201527f6f6e000000000000000000000000000000000000000000000000000000000000602082015250565b6000610d456022836109f7565b9150610d5082610ce9565b604082019050919050565b60006020820190508181036000830152610d7481610d38565b9050919050565b7f4e487b7100000000000000000000000000000000000000000000000000000000600052602260045260246000fd5b60006002820490506001821680610dc257607f821691505b602082108103610dd557610dd4610d7b565b5b50919050565b60008190508160005260206000209050919050565b60006020601f8301049050919050565b600082821b905092915050565b600060088302610e3d7fffffffffffffffffffffffffffffffffffffffffffffffffffffffffffffffff82610e00565b610e478683610e00565b95508019841693508086168417925050509392505050565b6000819050919050565b6000819050919050565b6000610e8e610e89610e8484610e5f565b610e69565b610e5f565b9050919050565b6000819050919050565b610ea883610e73565b610ebc610eb482610e95565b848454610e0d565b825550505050565b600090565b610ed1610ec4565b610edc818484610e9f565b505050565b5b81811015610f0057610ef5600082610ec9565b600181019050610ee2565b5050565b601f821115610f4557610f1681610ddb565b610f1f84610df0565b81016020851015610f2e578190505b610f42610f3a85610df0565b830182610ee1565b50505b505050565b600082821c905092915050565b6000610f6860001984600802610f4a565b1980831691505092915050565b6000610f818383610f57565b9150826002028217905092915050565b610f9a826109ec565b67ffffffffffffffff811115610fb357610fb2610ae7565b5b610fbd8254610daa565b610fc8828285610f04565b600060209050601f831160018114610ffb5760008415610fe9578287015190505b610ff38582610f75565b86555061105b565b601f19841661100986610ddb565b60005b828110156110315784890151825560018201915060208501945060208101905061100c565b8683101561104e578489015161104a601f891682610f57565b8355505b6001600288020188555050505b505050505050565b61106c81610981565b82525050565b600060a0820190506110876000830188611063565b81810360208301526110998187610a43565b905081810360408301526110ad8186610a43565b905081810360608301526110c18185610a43565b905081810360808301526110d58184610a43565b90509695505050505050565b7f43616e6e6f742064656d6f74652073656c660000000000000000000000000000600082015250565b60006111176012836109f7565b9150611122826110e1565b602082019050919050565b600060208201905081810360008301526111468161110a565b905091905056fea26469706673582212204b3c9f2046e4c5f0bec98f0df6585ae76cdecc7d0dddd33619959dfaa3f04e7c64736f6c63430008110033",
  "linkReferences": {},
  "deployedLinkReferences": {}
}